:040000000AEF09F00A
:100F0000004C6F636B284C29206F7220556E6C6FFC
:100F1000636B2855290A0D00556E6C6F636B0A0DC3
:100F200000426173650A0D004C6F636B0A0D00008F
:100F30002B502C10D8B49FEF07F0A1EF07F0AAEFC9
:100F400007F02B502C10D8A4A8EF07F0AAEF07F059
:100F5000AFEF07F0295044EC09F0FCEF07F020EE6A
:100F60000AF02B50D9262C50DA22DE50DE10D8B4ED
:100F7000BCEF07F0BEEF07F0D9EF07F020EE0AF064
:100F80002B50D9262C50DA2210EE03F02B50E126FC
:100F90002C50E222DE50E65CE650800A316EDE50D4
:100FA000800A3158D8B0D7EF07F0D9EF07F0FCEF3F
:100FB00007F020EE03F02B50D9262C50DA22DECF9A
:100FC0002DF0DDCF2EF02BC0D9FF2CC0DAFFDECF05
:100FD0002FF0DDCF30F02D502F24D96E2E50302041
:100FE000DA6E29C0DFFF20EE03F02B50D9262C50FB
:100FF000DA22DE2A000EDD22120020EC09F0000EBB
:10100000286E2E0E276EBCEC08F0010E3B6EFDEC38
:1010100008F02DEF08F0280E3B6EFDEC08F0000EF6
:10102000286E150E276EBCEC08F02DEF08F0180E98
:101030003B6EFDEC08F0000E286E470E276EBCECF0
:1010400008F02DEF08F0210E3B6EFDEC08F0000ECD
:10105000286E2E0E276EBCEC08F0E9EC08F03D6E11
:101060003E6A3E50000AD8B438EF08F023EF08F08B
:101070003D504C0AD8B40BEF08F0190AD8B417EF5A
:1010800008F023EF08F000EF00F03450D96EDA6A70
:10109000DFCFF6FF0F0EF76E0800F550250AD8A433
:1010A00054EF08F056EF08F068EF08F03450D96EAE
:1010B000DA6ADF2A000E226E000E216E21C025F0B2
:1010C000236824683450D96EDA6ADF2A7BEF08F08F
:1010D0003450D96EDA6ADFCFF6FF0F0EF76E0800D4
:1010E000F550296E2A6A32C02BF033C02CF098ECF0
:1010F00007F062EF08F0120038C03AF08AEF08F00B
:1011000036C032F037C033F03A0E346E39C035F0A5
:1011100045EC08F03AC0F6FF0F0EF76E0800F550E8
:101120000009D8A496EF08F098EF08F080EF08F0D7
:10113000000E376E000E366E1200080EA76E900E6F
:10114000AB6E240EAC6E0C0EAF6E000E7D6E000EFC
:10115000276E000E286E4EEC09F0000E276E000E72
:10116000286E49EC09F0000E276E000E286E53EC35
:1011700009F0000E266E120027C029F028C02AF0C0
:10118000D8902A322932D8902A32293229500F0198
:10119000516F27C029F0030E2916293AF00E29169F
:1011A0005051CF0B2910506F1200000E896E000EA7
:1011B0008A6E000E8B6ECF0E926E9368BB0E946E8D
:1011C0001F0E0F015D6F030E5C6F000E5B6FF18EE3
:1011D00012009EAAEEEF08F0F0EF08F0E9EF08F039
:1011E000000E266EABA2F7EF08F0F9EF08F0FBEF68
:1011F00008F0AB98AB88AE5012003C0E3C6E000E6F
:10120000366E000E376E3BC038F03C0E396E7CEC0B
:1012100008F0120000EE01F0260EEE6AE806FDE18D
:10122000000EF86E0001FDEF07F0276E9EA81BEF81
:1012300009F01DEF09F016EF09F027C0ADFF12000D
:10124000D5EC08F02BEC09F034EC09F03CEC09F09B
:101250009DEC08F01200200ED36E000ED26E000E30
:101260009B6E000E9A6E12009B0ECB6E000ECC6E23
:101270009E92060ECA6E12003C0E0F01506F51690D
:10128000000E526F99921200286E285015EC09F04A
:10129000120027C041F028C042F0120027C043F0DE
:1012A00028C044F0120027C03FF028C040F01200D0
:020000040030CA
:0E00000015087F50FF8991FF0FC00FE00F40E1
:00000001FF
